:020000040800F2
:20000000E01C00200D2E0008312E0008352E0008392E00083D2E0008412E00080000000056
:20002000000000000000000000000000452E0008492E0008000000004D2E0008512E0008BC
:20004000552E0008592E00085D2E0008612E0008652E0008692E00086D2E0008712E0008D8
:20006000752E0008792E00087D2E0008812E0008852E0008892E00088D2E0008912E0008B8
:20008000952E0008992E00089D2E0008152D0008192D0008A92E0008AD2E0008B12E0008B2
:2000A000B52E0008B92E0008BD2E00081D2D0008C52E0008C92E0008CD2E0008D12E00081D
:2000C000D52E0008D92E0008DD2E0008E12E0008E52E0008E92E0008ED2E0008F12E000858
:2000E000F52E0008F92E0008FD2E0008FFFFFFFFFFFFFFFFFFFFFFFFFFFFFFFFFFFFFFFF87
:20010000153CA54700000021772A000810B5DFF8204700B92EE0DFF81C070068006880477D
:2001200020680A3010BD80B5DFF80407DFF8082700685278C1788A420DD38278002A04BF15
:200140008288002A07D18172DFF8E806006840688047002002BD022002BD10B5DFF8D04692
:2001600000B907E0DFF8CC0600688068804720680C3010BD206801210182002010BD10B5AF
:20018000DFF8AC46DFF8B42620681268C17840799269904721688A7A9AB1002804BF0879DB
:2001A00000280ED1887860B9DFF888060068C068804720684179C1722068C1780173002099
:2001C00010BD022010BD10B5DFF86416096818B902200882002010BD0020DFF86446208031
:2001E0007F220878104215D1487A810603D5002141F0020121704006217854BF01F0FE00BE
:2002000041F001002070DFF82C06006800698047204610BD00F07F02012AF9D000F07F0074
:200220000228D7D14879DFF81C2600F00F01000652F8210007D500F030001028E3D1002099
:2002400040F00100DEE700F44050B0F5805FDAD1002040F00100D5E770B5DFF8D4050068AB
:20026000017811F07F0104D1417A01F0DF01417251E0022901BF41880029017900294CD1A2
:200280004179DFF8C04521F080050A0654F825204CBF02F0300202F44052DFF89C351B789F
:2002A0009D423AD2002A1CBF807A002835D0080654F825000BD500F03000102826D128460B
:2002C00000F045FB3021284600F0F6FA1EE000F44050B0F5805F19D14BF68F7665B9DFF824
:2002E000680590F82C10002000F05EFB2068304080F44050206009E0284600F018FB54F842
:200300002500304080F4405044F82500DFF82405006840698047002070BD022070BD38B582
:20032000DFF80C05DFF81C150268537923F080001C0651F820404CBF04F0300404F440547A
:20034000DFF8F4542D78A84206D2558825B9002C1CBF927A002A01D1022032BD1A0651F8D3
:20036000202005D548F6BF731A4082F0100204E04BF68F731A4082F4805241F82020DFF8FC
:20038000B404006880698047002032BDDFF8A0241268538A20B98888C01A10820020704760
:2003A0000868181870472DE9F041DFF88444206800F110052988002904BF007A042802D15C
:2003C0000726102025E0AF888F4205D30426B94288BF39460F4600E00226A9683846884735
:2003E0008046002000F0D1FA01463A46404600F02AFB3946002000F0D0FA2888DFF84C14BA
:20040000C01B28804FF440526888381868800A803020DFF83C14088020680672BDE8F081BD
:2004200038B5DFF80C442068457801787F22114241D1092D02D1FFF776FE50E0052D1BD123
:20044000C178802959DA8178002901BF81880029807A002851D1DFF8FC13DFF8FC230968E2
:2004600089B2002342F811300620DFF8E41330220A802168087231BD032D11D1C17801296D
:2004800004BF818800292CD1417A8A0629D541F020014172DFF89C030068C0698047DAE78D
:2004A000012D04BFC17801291BD18188C9B9407A80060DD415E001F07F00012804D10B2DB5
:2004C0000FD1FFF75CFE0AE002280AD1012D02D1FFF7C2FE03E0032D03D1FFF720FF002822
:2004E000B9D0DFF858130968496928468847032808BF0920BDD00028ADD00820B9E710B5F7
:20050000CB4C20684178062916D101787F22114231D18078012803D1C8480068C16975E012
:20052000022803D1C5480068016A6FE0032822D1C2480068416A69E0002944D141880029DA
:2005400004BFC188022916D10179A1B901787F22114204BF8288002A33D001F07F02012AA5
:2005600015D1B64A4079126892690021904710B92068807A28BBB149206809684078096924
:20058000884703284BD120680921017210BD01F07F010229EFD14079AA4B00F00F0100F059
:2005A0007002000653F821004CBF00F0300000F44050A14B1B789942DDD2002ADBD10028A1
:2005C000D9D0A64922E0082905D100787F210842D1D1A3491AE00A2902BF017801F07F01B2
:2005E0000129C8D1817A0029C5D04188002901BF01790029C1880129BDD1904A407912681C
:200600009269002190470028B5D196490800B2D020680022428281610020884700202168E8
:200620000A8A4FF6FF739A4208BF092004D0022818BF002A02D10820087210BD08780006DC
:200640000BD5C888904238BF08827C48006890F82C008882BDE81040A5E6032008724FF4CD
:2006600040517A48018010BD38B57A487E4900686F4C80B231F8100021680A7A400000F197
:20068000804000F5C040092A14D010F8012B0A70216810F8012B4A70851C35F8040B00F09C
:2006A000CDF921684880288800F0C8F921688880A888C8800121206801722068C08810B903
:2006C000FFF7AEFE01E0FFF71AFFBDE831407DE010B5574C2068017A022918BF042904D1A6
:2006E000FFF761FE2068007A14E0062911D14178052902BF01787F22114206D1C07800F08A
:200700007FF84C480068006A80474C48006880688047082021680872BDE8104056E0F8B587
:20072000434C2068017A032918BF052943D100F11005A9682E88080018BF002E14D0A888F4
:20074000864288BF06463046884707462888801B2880688830186880002000F017F9014632
:200760003246384600F085F9288850B137484FF4405101800020002100F00FF9344830218A
:2007800001802888AA882168904228BF032001D210B1052008720BE00620087200222D483C
:2007A0002D49006880B241F810203021284801802068007A06E0072903D120480068C0689A
:2007C0008047082021680872BDE8F14080B51E4890F82C10002000F0E7F815480068017AC3
:2007E000082906D119494FF480520A80102218490A80007A092801D1012002BD002002BD97
:20080000F0B40D490F4B0978002259B11C4648F68F7526682E40D7B23E43521C44F8046B14
:200820008A42F6D340F08000D864F0BC70470000841400208C140020480300208814002035
:20084000C4140020005C004034020020C8140020CA140020505C004004600040C701000854
:200860000D0100085B01000808600040704710B450F8041B81B102681218001D50F8043B0A
:20088000DC0744BFA9F10104E31852F8044B43F8044B091FF9D1EBE710BC70474FF6F871C0
:2008A0000840DFF8801108607047DFF87C2152F8203048F68F1C5AE0DFF86C2152F820303A
:2008C00048F6BF7C0CEA03035FEAC16C48BF83F01003890648BF83F0200310E0DFF8482144
:2008E00052F820304BF68F7C0CEA03035FEAC14C48BF83F48053890448BF83F4005342F8D7
:2009000020307047DFF8201151F820204BF68F731A4082F4405207E0DFF80C1151F8202036
:2009200048F68F63FFE71A4041F820207047DFF8F81051F82020520408D551F8202048F6B5
:200940008F731A4042F4804241F820207047DFF8D81051F82020520608D551F8202048F6CF
:200960008F731A4042F0400241F8202070470CEA0303194342F82010704738E0294A1268F9
:2009800092B202EBC000294A37E03BE02549096889B201EBC00025493AE0224A126892B249
:2009A00002EBC000224A2AE01E4A126892B202EBC000204A02EB40003F2909DB4A091F23C9
:2009C000194208BF521E1204910941F4004105E04A08C90748BF521C12049109016070471B
:2009E0001049096889B201EBC000124914E00D4A126892B202EBC0000F4A4908490042F808
:200A0000101070470749096889B201EBC0000A4951F8100080B2704751F810008005800D57
:200A200070470000505C0040005C004008600040046000400C600040006000400106090CC3
:200A400041EA10207047490001F18041521C01F5C04152100AD1704710F8013B10F801CB17
:200A600043EA0C2321F8023B891C521E002AF3D17047490001F18041521C01F5C041521047
:200A800005D1704751F8043B20F8023B521E002AF8D17047F0B5046842688368C068DFF82D
:200AA0000C56DFF80C760C604A608B60C8600A26C0F3072EC0F3074C1EF807E01CF807C05C
:200AC0004FEA0E4E4EEA0C6C5FFA80FE1EF807E04CEA0E2C4FEA106E1EF807E04EEA0C0C89
:200AE00055F804EB8EEA0C0C8CEA0404624041F8104F53404A6058408B60C860761ED7D14E
:200B0000F0BDC7E72DE9F04F036852F8A04F84EA030E4368546884EA030883689468C06813
:200B200084EA0309D368DFF88C4583EA000CA2F1200009221B23CCF307464FEA1E65365D68
:200B40002D5D360446EA0565C9F30726CEF30747365D3F5D45EA06255FFA88F63F04365D09
:200B60003543066975404FEA1866C8F3074A365D1AF804A047EA0666CCF307274FEA0A4AB6
:200B80003F5D46EA07265FFA89F7C8F307283F5D18F804803E4347697E404FEA1967C9F305
:200BA00007493F5D19F804904AEA0767CEF3072A5FFA8EFE1AF804A01EF804E047EA0A2719
:200BC0005FFA8CFA4FEA1C6C4FEA09491CF804C01AF804A049EA0C6C4CEA082C4EEA0C0CF7
:200BE000D0F81CE04FEAD5188EEA0C0C08F0013805F07F3E03FB08F888EA4E0E4AEA07078A
:200C00004FEADE19D0F818A009F001390EF07F3803FB09F98AEA070789EA48084FEAD81ACC
:200C20000AF0013A08F07F3903FB0AFA8AEA490989EA050585EA0E0B88EA0E0E89EA0E0EE5
:200C400085EA080A8EEA3B6E8EEA3A4E4FEAD6188EEA352E08F0013806F07F3503FB08F817
:200C600088EA45054FEAD51909F0013905F07F3803FB09F989EA48084FEAD81A0AF0013A8F
:200C800008F07F3903FB0AFA8AEA490989EA060686EA050B88EA050589EA050586EA080A62
:200CA00085EA3B6585EA3A4585EA3628FE0906F0013607F07F355E4386EA45054FEAD51909
:200CC00009F0013905F07F3603FB09F989EA46064FEAD61A0AF0013A06F07F3903FB0AFA6A
:200CE0008AEA490989EA070787EA050B754089EA050587EA060A85EA3B6585EA3A454FEA43
:200D0000DC1685EA372906F001360CF07F355E4386EA4505EF0907F0013705F07F365F4367
:200D200087EA46064FEAD61A0AF0013A06F07F3703FB0AFA8AEA470787EA0C0C8CEA050B19
:200D400075407D408CEA060A85EA3B6585EA3A45103885EA3C2C521E7FF4EDAECEF30743F6
:200D60004FEA18621B5D125D1B0443EA0262CCF30723C8F307451B5D2D5D42EA03225FFA8D
:200D800089F32D041B5D1A4343695A404FEA1963C9F307461B5D365D45EA0363CEF3072540
:200DA00036042D5D43EA05235FFA8CF5CCF307472D5D3F5D2B4385696B404FEA1C653F0409
:200DC0002D5D46EA0565C8F30726365D45EA06255FFA8EF6365D3543C669006975404FEAAC
:200DE0001E66365D47EA0666C9F307273F5D46EA07265FFA88F73C5D3443604008604A60C2
:200E00008B60CD60BDE8F08F2DE9F0470368146855689668A64F634044686C408568C068A2
:200E20007540D66886EA000902F1100009221B26C4F3074E4FEA136C1EF807E01CF807C03B
:200E40004FEA0E4E4EEA0C6CC5F3072EC5F307481EF807E018F807804CEA0E2C5FFA89FE75
:200E60004FEA08481EF807E04EEA0C0C4FEA146EC9F3074A1EF807E01AF807A048EA0E6E70
:200E8000C9F307284FEA0A4A18F807804EEA082E5FFA83F84FEA196918F8078019F8079007
:200EA00048EA0E0E4FEA156818F807804AEA0868C3F3072AC3F307431AF807A0DB5D48EAE9
:200EC0000A285FFA84FAC4F307241B04E45D1AF807A043EA096343EA0423ECB24AEA08083F
:200EE000E45D44EA03094FEADC1303F0013373430CF07F34CCF3066A83EA44058CEA4A6AB4
:200F000083EA0A0A8CEA440463401B0243EA1A636B4083EA3C4350F8044B83EA3C2363408B
:200F20004FEADE1404F0013474430EF07F35CEF3066A84EA450C8EEA4A6A84EA0A0A8EEADE
:200F400045056C40240244EA1A6484EA0C0484EA3E4450F8045B84EA3E246C404FEAD81512
:200F600005F00135754308F07F3CC8F3066A85EA4C0E88EA4A6A85EA0A0A88EA4C0C85EA05
:200F80000C052D0245EA1A6585EA0E0585EA384550F804CB85EA38258CEA05054FEAD91C64
:200FA0000CF0013C06FB0CFC09F07F3EC9F3066A8CEA4E0889EA4A6A8CEA0A0A89EA4E0EC1
:200FC0008CEA0E0C4FEA0C2C4CEA1A6C8CEA080C8CEA394C50F804EB8CEA392C8EEA0C0930
:200FE000521E7FF425AFC5F30746220EF65DD25D360446EA0262C9F30726C9F3074CF65D6A
:201000001CF807C042EA0622DEB24FEA0C4CF65D3243466872402E0EC3F3074EF65D1EF8A8
:2010200007E04CEA0666C3F3072C4FEA0E4E1CF807C046EA0C265FFA84FC1B0E1CF807C08F
:20104000DB5D4CEA0606D0F808C08CEA06064FEA196C1CF807C04EEA0C6CC4F3072EC4F318
:201060000744E45D1EF807E0240444EA03634CEA0E2CC5F307245FFA85FEE45D1EF807E0BE
:2010800043EA04234EEA0C0C5FFA89F4D0F80CE0E45D00682343584008604A608EEA0C0CD9
:2010A0008E60C1F80CC0BDE8F08700006402002000000020000100202DE9F04F93B080467C
:2010C00002AE002014461D460291B0610DF1300A0AE014F8011B0298C0470290002800F04A
:2010E000B481B069401CB061207808B9B069AEE12528EED10020F0603061706101E040F045
:20110000010014F8011F2029F9D023290DD02B2904D02D2906D030290AD00CE040F00200C2
:2011200080B2EEE740F00400FAE740F00800F7E740F01000F4E72A290DD129680A1D2A60EF
:2011400009683162002904D5494240F00400316280B2641C13E0002131620BE0316A6FF0F9
:201160000043994205D001EB810302EB430130393162641C2278A2F130010A29EED3217874
:201180002E2903D04FF0FF31F1611EE014F8011F2A2906D129680A1D2A60641C0968F1618B
:2011A00013E00021F1610BE0F1696FF00043994205D001EB810302EB43013039F161641C56
:2011C0002278A2F130010A29EED3B0840FF28030217800F0C1F908B114F8010B8DF82E0011
:2011E0009DF82E00682804BF2078682803D162208DF82E00641C0CA8B0602278252A13D098
:20120000582A34D0632A00F0A580642A18BF692A68D06F2A2BD0702A20D0732A09D0752A43
:2012200018BF782A23D09FE0F068411CF160252197E02868011D29600068F2697060002A0C
:2012400002D500F0A5F907E0002100F0C1F900281ABF7168401AF069306191E02868011D3A
:2012600029607821006801900CA870606EE09DF82E306C2B08BF286811D0712B08BF2868CC
:2012800002D028686A2B0AD1C01D20F007002860014601F108002860D1E9000102E0011D7C
:2012A000296000680190682B02D101A8008803E0622B02D101A80078019096F82400000767
:2012C0003FD5019800283CD042F02000782838D1F068302100F80A10401C411CF16000F875
:2012E0000A202EE09DF82E00622802D0682806D00BE02868011D296090F9000009E028680D
:20130000011D2960B0F9000003E02868011D296000680190002804D5F068411CF1602D2115
:201320000DE0B08C810704D5F068411CF1602B2105E0C00705D5F068411CF160202100F80C
:201340000A10F0680CA940187060114601A800F081F815E0F068411CF16029680A1D2A6098
:20136000096800F80A100BE0F068411CF160252100F80A1022B1F068411CF16000F80A20A6
:20138000306AF168401A7169401A3169A0EB010996F82400641C40070FD420208DF800007C
:2013A000002708E0012300AA01A9404600F0B9F800284AD17F1C4F45F4DBF7680DF1300BA6
:2013C0000AE01BF8011B0298C047029000283CD0B069401CB0617F1E002FF2D130208DF8A3
:2013E00000004FF0000B776908E0012300AA01A9404600F096F840BB0BF1010BBB45F4DB8D
:201400003769D6F804B009E01BF8011B0298C0470290D0B1B069401CB0617F1E002FF3D1C8
:2014200096F8240040077FF55FAE20208DF8000000E07F1C4F45BFF657AE012300AA01A92C
:20144000404600F06EF80028F3D04FF0FF3013B0BDE8F08FF0B4C2686F2908BF082405D042
:2014600041F02003782B14BF0A241024066818233746642918BF692902D1002E48BF7F425B
:201480005FB9056A4DB9082C27D190F82810090723D530211723D1751FE0B7FBF4F604FB60
:2014A000167730375D1EFFB22B463A2FA4BFA1F1510C6744AF54370003D085689E18B5428E
:2014C000EBD3082C09D190F82810090705D5995C302902D05B1E30219954C3F11801416150
:2014E0009A188260026A914208DA511A81614FF6EF72018D11400185F0BC7047002A0ED56F
:2015000090F8282002F01402102A08D1426A0369D21A8369D21A531A012BA8BF8361F0BC74
:201520007047F8B504460D4616461F46002004E0E869401CE8617F1E002047B116F8011B10
:201540006868A04768600028F2D14FF0FF30F2BD686C747A4C0000000278C9B28A421AB16A
:201560001CBF10F8012FF9E718BF0020704750F8041B61B150F8042BD30744BFA9F101035F
:201580009A18002342F8043B091FFAD1EFE7704700F10103810704D010F8011B89B1810746
:2015A000FAD10268B2F10131914311F0803F04BF50F8042FF6E710F8011B11B110F8011B68
:2015C000FBE7C01A70470268531C036011707047C9B2830706D0521E22D310F8013B9942C5
:2015E000F7D11FE0083A13D302F1040241EA012141EA014150F8043B121F21BF4B40A3F192
:20160000013C2CEA030C1CF0803FF3D0C9B2001F083210F8013B521E28BF91EA030FF8D80E
:2016200018BF0120401E704780B500F0C1F9CA49087001BD2DE9F84304460D46A04615F09C
:20164000030F0BD04FF6FC702840001D854205D2411BC248FF22281800F06EFA0026C04F75
:201660000DB97E8213E0DFF8F49259F8041B204600F0BDF9241D361DAE42F6D30020788271
:20168000788A18F8011B081878826D1EF8D1788A398A88420CBF00200320F872BDE8F1838E
:2016A000AF48022181720021C172AE480170704730B5AD484178491E8BB0092900F243818E
:2016C000DFE811F037004101A700F80013012B011A000A001F0028001422A44905A800F0BF
:2016E0006FFAA34800788DF818001422A02105A8FFF7A9F9142104E19948072101730BB0F3
:2017000030BD81784129A8BF4021924800F013FB0BB030BD01A8002100220B460C461EC0C4
:201720004FF004500190102101A800F004FB0BB030BD8B4CA17A022918BF05295FD18279C7
:20174000002A04BFC17900290BD1012060620620A072E07A207000206070608006202071D1
:20176000F4E084490B78A3B9C378857845EA03232362C37942EA0322A2614279007940EAE9
:2017800002202082A069E0610020E0810120087026E0206A784D98B9002100F029FB2878A6
:2017A000E97820730904287941EA0060A97840EA01206978084360610320A0722071C5E038
:2017C000E089A2690019412A11D340222946283000F0E6F9E0894030E081A0694038A06179
:2017E0004FF440510220FFF779F80BB030BD2946283000F0D5F90320A0722071A6E00A20E9
:20180000A0720F2020700020607060800A2020719CE0534CA07A032814D0042802D00628FC
:2018200041D03AE0607BC1073DD50521A172217100F0FE000021617061806073E17A21707D
:2018400000210DE0607BC1070ED500F0FE0005216073A17221710021E07A617061802070AB
:20186000012000F0C5FA1EE00421A1722171217B412916BF512950210021009140F0020026
:201880009DF80010617060739DF80110A1709DF80210E170E17A217005E0207100206070FE
:2018A0006080E07A20700622A0212046FFF7CBF8062126E02A4CA07A0A2808D10220A0725A
:2018C0000020206002202071002060710BE00A20A0720E2020700020607060800A20207154
:2018E000002060710E20E07230E01D4CA07A60720222E07A2072A02104F10800FFF7A3F8B3
:2019000002210120FFF749F830210120FEF7D4FF1848032101700BB030BD114CA07A801E60
:20192000012884BFC01E012801D9001F0ED10220A072002020600220207100206071206262
:20194000A061E07202E0022000F01BFA00F00EFA0BB030BD303C0008D6140020740B00206E
:201960004C0300209D140020A0140020E0F7FF1F203C00089C14002028140020DFF898114E
:201980000A6802F03802FFE70A600A68104308607047DFF884110A6822F01002F4E7DFF8C1
:2019A0007C01DFF87C110160DFF878110160704770B5054640F6FF76304600F078F8042850
:2019C00014D1DFF86441206840F0020020606560206840F040002060304600F068F8012840
:2019E00004D0216841F6FD721140216070BD70B50E46054616F1010F01D1042070BD0F20B8
:201A000000F055F8042816D1474C206840F0010020602E800F2000F04AF8042804D1300C5E
:201A200068800F2000F043F8012804D0216841F6FE721140216070BD70B5044640F6FF751F
:201A4000284600F034F8042830D1384E3448306034483060B06840F02000B060B06840F071
:201A60004000B060284600F022F8042817D1B06841F6DF710840B060002CB06840F010000F
:201A8000B0602B4814BF0021A5210180284600F00EF801280AD0B16841F6EF7204E0012863
:201AA00004D0B16841F6DF721140B16070BD18B4204A13680421DB0748BF012108D41368EA
:201AC0005B0748BF022103D41368DB0648BF0321FF2304E01468E40648BF0321401E0129FD
:201AE00015D1A8B100210091009302E00099491E009100990029F9D104211468E40748BFD0
:201B00000121EBD414686407E4D50221E6E700B90521084612BC70470020024004200240DA
:201B200023016745AB89EFCD102002400820024000F8FF1F0C20024062F30F2262F31F4249
:201B4000401810F0030308D0C91A1FD3DB0748BF00F8012D28BF20F8022D130030B41446EC
:201B60001546103928BF20E93C00FAD8490728BF20E90C0048BF40F8042D890028BF20F87F
:201B8000022D48BF00F8012D30BC7047C91818BF00F8012DCB0728BF00F8012D70470000D2
:201BA00062B38B0708D0521E11F8013B00F8013B00F024808B07F6D1830740F0208000BFB7
:201BC000103A07D330B4B1E83810103AA0E83810F9D230BC530724BFB1E80810A0E80810BD
:201BE00044BF51F8043B40F8043BD20724BF31F8022B20F8022B44BF0B7803707047083A9A
:201C000007D3B1E80810083A40F8043B40F804CBF7D25307E4E7000000B55048017840780D
:201C200083B08DF8001000A948704D48027A8DF80220427ACA700622817AC07A8DF80410D7
:201C40008DF80500A02100A8FEF7FDFE06210120FEF7A3FE30210120FEF72EFE4148032183
:201C6000017003B000BD10B53E4C607882B000F50070ADF800000222A02100A8FEF7E3FEBD
:201C80000320207002210120FEF787FE30210120FEF712FE13BD33480178891E03D0491EB7
:201CA000012905D970470079F32802D1FFF700BD60E0704710B50220FEF792FE0446224636
:201CC000E0212948FEF7D5FE2648017811B1012904D007E02046BDE8104005E00079F32868
:201CE00001D119E01CE010BD10B51E4C20B11E490246201DFFF754FF2079F12804D0F3287A
:201D000005D0F52804D006E0BDE8104084E703E0BDE81040A7E703E0BDE81040FFF7C8BCFF
:201D200010210120FEF7C8FDBDE810404FF480510220FEF7D3BD10B50C462246A021FEF7B2
:201D400082FE21460120FEF728FE30210120FEF7B3FD04480321017010BD0000FE3F000856
:201D6000A82C00089C14002028140020004801E09C1400200021017002204FF44051FEF7E5
:201D8000ADBD80B518B1022807D00AD301BDBDE8044010210120FEF78FBD10210120FEF77C
:201DA0008BFDBDE80440C1E700B585B000F096F8454802210186018801F09F010180018847
:201DC00001806020ADF800000220ADF808000120ADF8020000A800F08EF8012000F0C6F8D9
:201DE000012000F0C0F8012000F0AAF805B000BD70B5364E0446307882B00D46844218D027
:201E00000021042000F0A0F8002000F095F8062C40D8DFE804F004121427181A2F002C482D
:201E2000016821F0F0010091009941F04001016030E07068A842EAD173BD502000E04020CD
:201E400000F08CF826E0502000E0402000F086F82048858248F6A04101820420012100F0A3
:201E600073F817E01B4864218182818A49080184642105E017488582690801844FF6FF71B9
:201E800001820188C9B20091009941F4D041009100990180012110480160307800281CBF1A
:201EA0000428052809D144B10948016821F0F0010091009941F0B001016034707560012037
:201EC000BDE8764000F038B8002C0140B014002004080140182C01408082254280B50121E4
:201EE0004FF4006000F0EDF8BDE8044000214FF4006000F0E6B8DFF88C10DFF88C300A8897
:201F00004FF0000CC3F800C0D2B2B0F800C042EA0C220A8042881A6082889A6002895A609E
:201F20004289DA608389DFF86420FFE71360C3895360C08808847047DFF8541008607047F8
:201F4000DFF8501008607047DFF84C20012911880CBF084321EA00001080704709490A88D9
:201F600040F67F7308E00D49086070470C49086070470A884FF2FF331A4042EA0020088035
:201F800070470000182C014010842542A880254200802542BC8825420C2C01401C8025426D
:201FA0002C8325425848594A0021C16001611421416100218161C161016841F0010101602B
:201FC000416811404160524A016811400160016821F480210160416821F4FE0141600021B0
:201FE0008160704748490A6822F480320A60B0F5803F0A6822F480220A6003D0B0F5802FF5
:020000040800F2
:2020000004D07047086840F4803002E0086840F4A020086070473F483B490A68520C02F0AF
:20202000010202704268521C4260027812B94268FF2AF2D10868800301D5012070470020D5
:202040007047354A136823F47C1318430843106070473249086070472F490A68920840EA14
:202060008200086070472C48006800F00C00704729490A6822F0F00203E027490A6822F46D
:20208000E06210430860704723490A6822F4605242EAC00008607047214908607047214AE7
:2020A0000029116814BF084321EA0000106070471D4A0029116814BF084321EA000010608C
:2020C00070471A4A0029116814BF084321EA00001060704716490870704741090A4A01299D
:2020E00008BF116803D002290CBF116A516A00F01F0021FA00F000F0010070470D48016821
:2021000041F0807101607047001002400000FFF8FFFFF6FEB8140020041002406000424224
:20212000D8004242181002401C1002400C100240071002402410024000B59248816843681B
:20214000026889B001A800910FF2742100F040F98D4901A8062210F8013B01F8023B521E52
:2021600010F8013B01F8023B10F8013B01F8023B10F8013B01F8023BEDD109B000BD8348F2
:202180000068807A00B9704780B50120FEF7DFFB0220FEF7CCFB7E480021017001BD000054
:2021A00038B5FFF7C9FF794C20680021817200F029F900217748784A784D41604FF4044171
:2021C0001180016076492068C979417208E02878012804D14FF4FA710420FFF709FE00BFBD
:2021E0002068807A0028F2D005216E48017031BD10B56D48002181720020FEF74FFB4FF408
:2022000000710020FEF751FB20210020FEF754FB20210020FEF7B2FB644C94F82C100020AC
:20222000FEF7C2FB60210020FEF7A7FB0020FEF773FB0020FEF766FB00210120FEF735FB54
:20224000A0210120FEF799FB20210120FEF734FB00210120FEF742FB00210220FEF725FBC1
:20226000E0210220FEF78AFB94F82C100220FEF79BFB4FF440510220FEF730FB00210220F3
:20228000FEF71AFB00210320FEF70FFB4FF480710320FEF772FB20210320FEF70DFB0021B6
:2022A0000320FEF71BFB94F82C100020FEF77CFB0020FEF727FB0020FEF7A2FA3448002117
:2022C000017010BD7047704780B5304909680A7802F07F02212A08BFFE280BD14888002832
:2022E00001BF88880028C888012803D10FF28100020001D1022002BD88610020488200F09F
:2023000037F8002002BD80B5204909680A7802F07F02212A08BFFF2815D14888002804BFD1
:20232000888800280FD1C88868B90120FEF70FFB0220FEF7FCFA0320FEF709FB144800214E
:202340000170002002BD022002BD00290CBF0028022070471649FEF719B81649FEF716B810
:202360000A49154A0968C97802EBC101FEF70EB828B90648006801210182002070470F4825
:2023800070470000E8F7FF1F02020020841400209C140020405C0040D4140020CC140020F9
:2023A0008C020020D814002068140020340200203803002040030020B4020020D0140020D9
:2023C000253038582530385825303858000000000CB41CB5044604A801900A46009401ABA6
:2023E00000A9074878441830FEF766FE009900220A7000285CBF0098001B16BC5DF80CFB2F
:20240000C7F1FFFF80B5012000F0F1F80C480D4A012101600021016041604FF4044111806D
:202420000160002002BD10B5054C012020600020606000F0DCF803202060002010BD000071
:20244000405C0040D414002010B582B000F01BF86C4C4FF40041204600F080F94FF4004010
:20246000ADF8000000A914208DF8030001208DF80200204600F012F900F0CEF8FFF794FC0D
:2024800000F07CF813BD80B5FFF78CFD4FF48030FFF7A8FDFFF7BFFD012828D11020FFF7CC
:2024A00078FA0220FFF76AFA0020FFF7E1FD4FF48060FFF7E9FD4FF48060FFF7DEFD002027
:2024C000FFF7EAFD4FF4E0114FF48030FFF7B9FD0120FFF7BEFD3920FFF7FFFD0028FAD03D
:2024E0000220FFF7B9FDFFF7BEFD0828FBD1FFF756FA01214FF40000FFF7DAFD012140F691
:202500000C20FFF7CCFD0620FFF7E4FD4FF48070ADF8000000A918208DF8030002208DF8EB
:202520000200384800F0BAF801BD10B5364C00224FF40041204600F015F9322000F034F9F9
:202540002046BDE810400122012100F00BB92F480068000701D400207047012070472C4948
:202560000A784FF0FF30502A07D128480068000701D4487870476FF00100704780B5002181
:202580004FF0006000F065F92248002101604FF4A06000F019F914208DF8000001208DF8BE
:2025A000010000208DF8020001208DF8030000A800F00FF913208DF8000000208DF80100CC
:2025C0008DF8020001208DF8030000A800F001F91B208DF8000000208DF801008DF802004C
:2025E00001208DF8030000A800F0F3F801BD054A00284FF40041104618BF00F0AFB800F082
:20260000AFB8000000080140000C0140080C0140303C0008445C004010B582B001210120DA
:20262000FFF73DFD0121094800F0A1F808480178462902D14078C00705D401224FF4004164
:20264000044800F08FF8034C06E000BF00023000443C0008000C014000220121204600F022
:2026600081F848F20100ADF8000000A914208DF8030001208DF80200204600F00FF808206F
:20268000ADF8000000A948208DF8030001208DF80200204600F002F813BD00002DE9F041ED
:2026A000CC78002204F00F03E40644BF8C7823430C88E5B22DB3D0F800C001250F2605FA6A
:2026C00002F7BE460EEA0408F04515D14FEA820E06FA0EF82CEA080C03FA0EFE4EEA0C0C8C
:2026E00091F803E0BEF1280F08BF476191F803E0BEF1480F08BF0761521C082ADFD3C0F86E
:2027000000C0FF2C28DDD0F804C0002201250F2602F1080705FA07F7BE460EEA0408F04584
:2027200015D14FEA820E06FA0EF82CEA080C03FA0EFE4EEA0C0C91F803E0BEF1280F08BF48
:20274000476191F803E0BEF1480F08BF0761521C082ADDD3C0F804C0BDE8F0810161704735
:20276000416170470AB1016170474161704770B40C4A1368C0F3034485B2860248BF23F00B
:20278000E06306D4C60243BF032606FA04F4A343AB4321B180024CBF43EA05432B431360A8
:2027A00070BC70470400014041F27C51484381B0002102E000BF0099491C00910099814288
:2027C000F8D301B070470000274908432749086070472DE9F0410578C278012182B3234ABA
:2027E000204C126825F0030302F4E0621F5990F801C0C2F5E062120AC2F1040E0CFA0EFCF5
:2028000090F802E04FF00F0828FA02F202EA0E0205F0030542EA0C02ED00FF261201AE409C
:20282000AA40B74332403A431A510078104B420900F01F0001FA00F043F82200BDE8F081CF
:2028400005F01F03064A6809994042F82010BDE8F081084A114008430749086070470000EA
:2028600080E100E000E400E00000FA050CED00E000E100E080FFFF1F08ED00E02DE9F84FEB
:2028800040F68F7448F60F784BF68F7B654F664DDFF89891DFF898A121E0300404D52868DA
:2028A00020402860FDF73BFF286839880BEA0000CA0448BF80F48050890448BF80F400504B
:2028C000286048F6BF71286808407988CA0648BF80F01000890648BF80F020002860686C50
:2028E000AAF80000000460D547F6FF706864BAF8000010F00F0089F8000035D148F6BF71CF
:20290000286800F440503880286800F03000788028680BEA000080F400502860286808409A
:2029200080F020002860BAF80000C00628680FD408EA00002860FDF7CBFE4FF40841286841
:202940000842B1D0286820402860FDF78DFEABE786B2300605D5286808EA00002860FDF7DD
:20296000B7FE300599D5EDE755F820108EB231040AD555F82010214045F820102D4901EBAD
:20298000800050F8040C80473006A8D599F8000055F8201008EA010145F82010264901EB1B
:2029A000800050F8040C804799E7BDE8F18F2DE9F84FDFF88090DFF870B01C4F1C4CDFF8EE
:2029C0007CA040F68F7547F6FF7824E0CAF80080208800F00F0038705BF820108EB2310460
:2029E00009D55BF8201029404BF8201009EB800050F8040C804730060DD538785BF82010BC
:202A000048F60F7211404BF820100B4901EB800050F8040C8047DAF8000020800004D5D435
:202A2000BDE8F18FC8140020005C0040D7140020CE1400201C03002000030020445C00408A
:202A400080B50120C046C0467B20FFF746FB08B900F018F8FFF752FB3A483B49008880022E
:202A600050F8040C884202D100F082F801E000F009F8002002BD80B5FFF7E6FC00F082F8CF
:202A8000BDE801402DE9F8434FF4FA610420FFF7AFF9FFF7C8FC0A20FFF786FEFFF757FDF7
:202AA0000446012C08BFFFF740FDFFF758FD0546012D02DB0CB92548057200F077F8012DCE
:202AC00002DB0CB9FFF731FD00210120FFF790F9FEF7E6FD1E4C1F4DDFF87C80DFF87C900B
:202AE0001F4E204F1AE0D9F8002092B24146284600F078F8D9F800102068FEF79BFD3878D0
:202B000000F0FD0040F0010038703078072805D1FFF70BFDFFF787FC00F02AF83878800782
:202B2000F3D53078212808D0412802D05128DAD0E5E72068FEF778FDE1E751203070DEE74A
:202B400000000000E0F7FF1FD32700A58C0200206003002074030020740B002068030020EF
:202B6000580300205903002000400008000000085FF80C00016881F3088800F104000168E0
:202B80000847000010B5074979441831064C7C44163404E00A68081D511888470146A14292
:202BA000F8D110BD000200002002000010B50A4C0A49E461022020726162094820620068F6
:202BC00080474FF40070E0624FF48010A0624FF40060206310BD00BF68140020DC02002018
:202BE00034020020F0B5054617460F2085B00E46074200D107B942E0244C207800283BD142
:202C00002348244A01788DF8001041788DF801108178C0788DF802108DF8030001A9042060
:202C2000135C01F8013B401C135C01F8013B401C135C01F8013B401C135C01F8013B401C94
:202C40001028EDDB211D0FF25000FDF723FF221D00A900A8FEF7D8F8211D00A8FDF751FF50
:202C60000120207008E0221D31462846FDF74AFF103F10351036BFB23800F4D102E001200F
:202C800005B0F0BD002005B0F0BD000074130020E0F7FF1FE4F7FF1F4920616D206B65791B
:202CA0002C20776177617761120100020000004083044837000101020301000004030904C9
:202CC0002603530054004D006900630072006F0065006C0065006300740072006F006E00CE
:202CE00069006300730000001A03530054004D00330032002000530054004C0069006E0035
:202D00006B00000010035300540020004C0069006E006B00FFF74BBE00F020B80C4881B094
:202D200001884FF6FB72114001800A480168491C0160C9070848026822F0F002009200994C
:202D40004CBF41F0400141F0B001016001B07047102C0140C01400200408014038B50D484B
:202D60000D4C01680D4D618061882A881140490505D54FF6FF3101600948406880476088C4
:202D800029880840000403D5FFF778FD0120207031BD00BF445C0040CC140020D4140020AD
:202DA00034020020CBE7FFFF901100004C03002000000000BBDAFFFF4C03000044010000D6
:202DC000000000200000000000F00BF8002801D0FFF7D8FE0020C046C046FFF731FE00F0DA
:202DE00002F80120704700F001B800000746384600F002F8FBE7000080B5C046C046024A34
:202E000011001820ABBEFBE7260002000148804701480047492400081D2E0008C046C04682
:202E2000C046C046FFF7D0FFFEF735BFFEF742BFFFF7FEBFFFF7FEBFFFF7FEBFFFF7FEBF16
:202E4000FFF7FEBFFFF7FEBFFFF7FEBFFFF7FEBFFFF7FEBFFFF7FEBFFFF7FEBFFFF7FEBFDA
:202E6000FFF7FEBFFFF7FEBFFFF7FEBFFFF7FEBFFFF7FEBFFFF7FEBFFFF7FEBFFFF7FEBFBA
:202E8000FFF7FEBFFFF7FEBFFFF7FEBFFFF7FEBFFFF7FEBFFFF7FEBFFFF7FEBFFFF7FEBF9A
:202EA000FFF738BFFFF738BFFFF7FEBFFFF7FEBFFFF7FEBFFFF7FEBFFFF7FEBFFFF7FEBF06
:202EC000FFF72CBFFFF7FEBFFFF7FEBFFFF7FEBFFFF7FEBFFFF7FEBFFFF7FEBFFFF7FEBF2C
:202EE000FFF7FEBFFFF7FEBFFFF7FEBFFFF7FEBFFFF7FEBFFFF7FEBFFFF7FEBFFFF7FEBF3A
:202F0000637C777BF26B6FC53001672BFED7AB76CA82C97DFA5947F0ADD4A2AF9CA472C036
:202F2000B7FD9326363FF7CC34A5E5F171D8311504C723C31896059A071280E2EB27B275FC
:202F400009832C1A1B6E5AA0523BD6B329E32F8453D100ED20FCB15B6ACBBE394A4C58CF25
:202F6000D0EFAAFB434D338545F9027F503C9FA851A3408F929D38F5BCB6DA2110FFF3D2B3
:202F8000CD0C13EC5F974417C4A77E3D645D197360814FDC222A908846EEB814DE5E0BDB03
:202FA000E0323A0A4906245CC2D3AC629195E479E7C8376D8DD54EA96C56F4EA657AAE08E5
:202FC000BA78252E1CA6B4C6E8DD741F4BBD8B8A703EB5664803F60E613557B986C11D9EFB
:202FE000E1F8981169D98E949B1E87E9CE5528DF8CA1890DBFE6426841992D0FB054BB169B
:2030000052096AD53036A538BF40A39E81F3D7FB7CE339829B2FFF87348E4344C4DEE9CB44
:20302000547B9432A6C2233DEE4C950B42FAC34E082EA16628D924B2765BA2496D8BD1254E
:2030400072F8F66486689816D4A45CCC5D65B6926C704850FDEDB9DA5E154657A78D9D8410
:2030600090D8AB008CBCD30AF7E45805B8B34506D02C1E8FCA3F0F02C1AFBD0301138A6B2E
:203080003A9111414F67DCEA97F2CFCEF0B4E67396AC7422E7AD3585E2F937E81C75DF6E76
:2030A00047F11A711D29C5896FB7620EAA18BE1BFC563E4BC6D279209ADBC0FE78CD5AF4B6
:2030C0001FDDA8338807C731B11210592780EC5F60517FA919B54A0D2DE57A9F93C99CEF64
:2030E000A0E03B4DAE2AF5B0C8EBBB3C83539961172B047EBA77D626E169146355210C7D20
:203100003203300030003000300030003000300030003000300030003000300030003000AA
:203120003000300030003000300030003000300031000000A1210008F1210008C52200080B
:20314000C7220008C9220008072300084B230008552300085B230008612300080000000051
:20316000400000000000000100000002000000040000000800000010000000200000004090
:20318000000000800000001B000000360902270001010080320904000003FFFFFF0407055B
:2031A0008102400000070502024000000705830240000000BC2C000804000000C02C000843
:2031C00026000000E82C00081A0000000002002032000000042D0008100000006D08000879
:2031E0007F2100086D0800086D0800086D0800086D0800086D0800086D0800086D080008BC
:20320000292E00086D0800086D0800086D0800086D0800086D0800086D0800086D080008E4
:203220002D2E00086D0800086D0800086D0800086D0800086D080008A82C000812000000CC
:203240008C0200202700000004010000FFFFFFFFFFFFFFFFFFFFFFFFFFFFFFFFFFFFFFFFA8
:20326000FFFFFFFFFFFFFFFFFFFFFFFFFFFFFFFFFFFFFFFFFFFFFFFFFFFFFFFFFFFFFFFF6E
:20328000FFFFFFFFFFFFFFFFFFFFFFFFFFFFFFFFFFFFFFFFFFFFFFFFFFFFFFFFFFFFFFFF4E
:2032A000FFFFFFFFFFFFFFFFFFFFFFFFFFFFFFFFFFFFFFFFFFFFFFFFFFFFFFFFFFFFFFFF2E
:2032C000FFFFFFFFFFFFFFFFFFFFFFFFFFFFFFFFFFFFFFFFFFFFFFFFFFFFFFFFFFFFFFFF0E
:203C00004B112511465D9090994DABEE10F85E2CFFFFFFFFFFFFFFFFFFFFFFFFFFFFFFFF4E
:203C200042FFFFFFFFFFFFFFFFFFFFFFFFFFFFFFFFFF56554E444546494E45442020FFFF2D
:203C4000FFFFFFFFFFFFFFFFFFFFFFFFFFFFFFFFFFFFFFFFFFFFFFFFFFFFFFFFFFFFFFFF84
:203C6000FFFFFFFFFFFFFFFFFFFFFFFFFFFFFFFFFFFFFFFFFFFFFFFFFFFFFFFFFFFFFFFF64
:203C8000FFFFFFFFFFFFFFFFFFFFFFFFFFFFFFFFFFFFFFFFFFFFFFFFFFFFFFFFFFFFFFFF44
:203CA000FFFFFFFFFFFFFFFFFFFFFFFFFFFFFFFFFFFFFFFFFFFFFFFFFFFFFFFFFFFFFFFF24
:203CC000FFFFFFFFFFFFFFFFFFFFFFFFFFFFFFFFFFFFFFFFFFFFFFFFFFFFFFFFFFFFFFFF04
:203CE000FFFFFFFFFFFFFFFFFFFFFFFFFFFFFFFFFFFFFFFFFFFFFFFFFFFFFFFFFFFFFFFFE4
:203D0000FFFFFFFFFFFFFFFFFFFFFFFFFFFFFFFFFFFFFFFFFFFFFFFFFFFFFFFFFFFFFFFFC3
:203D2000FFFFFFFFFFFFFFFFFFFFFFFFFFFFFFFFFFFFFFFFFFFFFFFFFFFFFFFFFFFFFFFFA3
:203D4000FFFFFFFFFFFFFFFFFFFFFFFFFFFFFFFFFFFFFFFFFFFFFFFFFFFFFFFFFFFFFFFF83
:203D6000FFFFFFFFFFFFFFFFFFFFFFFFFFFFFFFFFFFFFFFFFFFFFFFFFFFFFFFFFFFFFFFF63
:203D8000FFFFFFFFFFFFFFFFFFFFFFFFFFFFFFFFFFFFFFFFFFFFFFFFFFFFFFFFFFFFFFFF43
:203DA000FFFFFFFFFFFFFFFFFFFFFFFFFFFFFFFFFFFFFFFFFFFFFFFFFFFFFFFFFFFFFFFF23
:203DC000FFFFFFFFFFFFFFFFFFFFFFFFFFFFFFFFFFFFFFFFFFFFFFFFFFFFFFFFFFFFFFFF03
:203DE000FFFFFFFFFFFFFFFFFFFFFFFFFFFFFFFFFFFFFFFFFFFFFFFFFFFFFFFFFFFFFFFFE3
:203E0000FFFFFFFFFFFFFFFFFFFFFFFFFFFFFFFFFFFFFFFFFFFFFFFFFFFFFFFFFFFFFFFFC2
:203E2000FFFFFFFFFFFFFFFFFFFFFFFFFFFFFFFFFFFFFFFFFFFFFFFFFFFFFFFFFFFFFFFFA2
:203E4000FFFFFFFFFFFFFFFFFFFFFFFFFFFFFFFFFFFFFFFFFFFFFFFFFFFFFFFFFFFFFFFF82
:203E6000FFFFFFFFFFFFFFFFFFFFFFFFFFFFFFFFFFFFFFFFFFFFFFFFFFFFFFFFFFFFFFFF62
:203E8000FFFFFFFFFFFFFFFFFFFFFFFFFFFFFFFFFFFFFFFFFFFFFFFFFFFFFFFFFFFFFFFF42
:203EA000FFFFFFFFFFFFFFFFFFFFFFFFFFFFFFFFFFFFFFFFFFFFFFFFFFFFFFFFFFFFFFFF22
:203EC000FFFFFFFFFFFFFFFFFFFFFFFFFFFFFFFFFFFFFFFFFFFFFFFFFFFFFFFFFFFFFFFF02
:203EE000FFFFFFFFFFFFFFFFFFFFFFFFFFFFFFFFFFFFFFFFFFFFFFFFFFFFFFFFFFFFFFFFE2
:203F0000FFFFFFFFFFFFFFFFFFFFFFFFFFFFFFFFFFFFFFFFFFFFFFFFFFFFFFFFFFFFFFFFC1
:203F2000FFFFFFFFFFFFFFFFFFFFFFFFFFFFFFFFFFFFFFFFFFFFFFFFFFFFFFFFFFFFFFFFA1
:203F4000FFFFFFFFFFFFFFFFFFFFFFFFFFFFFFFFFFFFFFFFFFFFFFFFFFFFFFFFFFFFFFFF81
:203F6000FFFFFFFFFFFFFFFFFFFFFFFFFFFFFFFFFFFFFFFFFFFFFFFFFFFFFFFFFFFFFFFF61
:203F8000FFFFFFFFFFFFFFFFFFFFFFFFFFFFFFFFFFFFFFFFFFFFFFFFFFFFFFFFFFFFFFFF41
:203FA000FFFFFFFFFFFFFFFFFFFFFFFFFFFFFFFFFFFFFFFFFFFFFFFFFFFFFFFFFFFFFFFF21
:203FC000FFFFFFFFFFFFFFFFFFFFFFFFFFFFFFFFFFFFFFFFFFFFFFFFFFFFFFFFFFFFFFFF01
:203FE000FFFFFFFFFFFFFFFFFFFFFFFFFFFFFFFFFFFFFFFFFFFFFFFFFFFFFFFFFFFF26CFEA
:020000040800F2
:204000005848002045EE000861EE000865EE000869EE00086DEE000871EE000800000000CA
:2040200000000000000000000000000075EE000879EE0008000000007DEE000885EB0008BB
:2040400087EB000889EB00088BEB00088DEB00088FEB000891EB000893EB000895EB000858
:2040600097EB000899EB00089BEB00089DEB00089FEB0008A5EB0008ADEB0008B7EB000898
:20408000BBEB0008BFEB000881EE0008C1EB0008C5EB000885EE000889EE0008C9EB000827
:2040A000CBEB0008CDEB000803EC000805EC000859EC00085BEC00085DEC00085FEC000852
:2040C00061EC000863EC000865EC000867EC000869EC00086BEC00086DEC00086FEC000800
:2040E00071EC000873EC000875EC000826480FF2A00101610FF2C84181620FF6A41101640D
:2041000016497944563181651549794452311F480160144979444C314160134979444831E6
:204120008160124979444431C1601149794440310161104979443C3141610F497944383163
:2041400081610E4979443431C1610D497944303101620C4979442C3141627047F8950000B5
:204160009893000098930000D49300003094000084940000C09400001095000054950000C4
:2041800080950000A8950000CC180020843F00202805002019040020E5020020E70200204C
:2041A000E9020020EB020020ED02002000000000000000000000000000000000F1020020C5
:2041C000EF02002000000000F3020020F5020020F7020020F9020020FB020020FD02002032
:2041E000FF02002001030020030300200503002007030020090300200B0300200D03002078
:204200000F03002011030020130300201503002017030020190300201B0300201D030020D6
:204220001F03002021030020230300202503002027030020290300202B0300202D03002036
:204240002F03002031030020330300203503002037030020390300203B0300203D03002096
:204260003F03002041030020430300204503002047030020490300204B0300204D030020F6
:204280004F03002051030020530300205503002057030020590300205B0300205D03002056
:2042A0005F03002061030020630300206503002067030020690300206B0300206D030020B6
:2042C0002B482C4901602E490160704770B504000420F82109066118284A914219D2B02513
:2042E0002D03280000F068F8042812D1224E30680221014331607460306840210143316065
:20430000280000F059F8012803D031681D4A0A40326070BDF8B505000C000420F821090625
:204320006918164A914222D2C702380000F044F804281CD1104E30680121014331602C80F6
:20434000380000F039F804280BD1200C6880380000F032F801280AD03168BA1E0A40326046
:20436000F2BD012803D03168BA1E0A403260F2BD042002402301674510200240FFFF0700E9
:20438000AB89EFCDFD1F00000A490860704704210420084A1368DB0701D50120704713687E
:2043A0000B4201D0022070471168C90600D50320704700000C20024010B50400FFF7E7FFFC
:2043C00004E0002C06D0FFF7E2FF641E0128F8D0002C00D1052010BD70B5224C25001435BD
:2043E000214E0420307000F024F83520FFF7CCFF09E0FFF76BFF30703078042818D16068FA
:204400002168401860606068A1688842F1D3E068216988420BD22968FFF77CFF30703078D9
:20442000042805D1E068001DE0602D1DEFE7FEE7FEE780B50D4800214160832202604160F7
:2044400081600022D243C260C16002610161142242618161C16106480160FFF731FF01BDCC
:2044600000000000EC0700202404002000100240002002407047FEE7FEE7FEE7FEE770472B
:204480007047704770477047704770477047704770477047704770477047704770477047AC
:2044A00070477047704770477047704770477047704770477047704770477047704770478C
:2044C00070477047704770477047704770477047704770477047704770477047704770476C
:2044E000704770477047704770477047704770477047704770477047704770477047000003
:2045000010B5084979441C31074C7C441A34A14206D0081D0A68891888470100A142F8D1AD
:2045200010BD00BF300000003C00000010B400210268001D002A0BD00368001DDC0702D5D0
:204540004C46641E1B1919601B1D121FFBD1EFE710BC7047D9FFFFFF0400000024040020EA
:204560000000000000F009F8002801D0FFF7C8FF0020FFF731FF00F002F80120704780B557
:2045800000F002F800BF00000746384600F002F8FBE7000080B5C046C046024A1100182005
:2045A000ABBEFBE726000200C046C046C046C046FFF7D8FFCDCDCDCDCDCDCDCDCDCDCDCD07
:2045C000464847490160494A026001640264704770B50400B0252D03F820000620184249D6
:2045E000884218D2280000F099F804282BD13D4E306802210143316074603068402101430A
:204600003160280000F08AF801281CD03168384A0A40326070BD280000F0A4F8042812D173
:20462000304E306C0221014331647464306C402101433164280000F095F8012803D0316C78
:204640002B4A0A40326470BDF8B505000C008027BF01F82000062818234988421BD23800FA
:2046600000F05CF8042838D11E4E30680121014331602C80380000F051F8042804D1200C7C
:204680006880380000F04AF8012826D03168BA1E0A403260F2BD380000F064F804281CD110
:2046A000104E306C0121014331642C80380000F059F804280BD1200C6880380000F052F852
:2046C00001280AD0316CBA1E0A403264F2BD012803D0316CBA1E0A403264F2BD042002406D
:2046E0002301674510200240FFFF0700AB89EFCDFD1F000008490860704704210420064A5E
:204700001368DB0701D50120704713680B4201D00220704721E000000C20024010B50400E4
:20472000FFF7EBFF04E0002C06D0FFF7E6FF641E0128F8D0002C00D1052010BD042104202D
:20474000024A1368DB0703D5012070474C20024013680B4201D0022070471168C90600D5C3
:204760000320704710B50400FFF7E8FF04E0002C06D0FFF7E3FF641E0128F8D0002C00D18B
:20478000052010BDD8050020C50400209103002093030020950300209703002099030020A9
:2047A000000000000000000000000000000000009D0300209B030020000000009F030020B9
:2047C000A1030020A3030020A5030020A7030020A9030020AB030020AD030020AF03002081
:2047E000B1030020B3030020B5030020B7030020B9030020BB030020BD030020BF030020E1
:20480000C1030020C3030020C5030020C7030020C9030020CB030020CD030020CF03002040
:20482000D1030020D3030020D5030020D7030020D9030020DB030020DD030020DF030020A0
:20484000E1030020E3030020E5030020E7030020E9030020EB030020ED030020EF03002000
:20486000F1030020F3030020F5030020F7030020F9030020FB030020FD030020FF03002060
:2048800001040020030400200504002007040020090400200B0400200D0400200F040020B8
:2048A000110400201304002015040020170400201904002070B5224C25001435214E042047
:2048C000307000F024F83520FFF714FF09E0FFF77FFE30703078042818D16068216840186C
:2048E00060606068A1688842F1D3E068216988420BD22968FFF7A8FE30703078042805D1A9
:20490000E068001DE0602D1DEFE7FEE7FEE780B50D48002141608322026041608160002211
:20492000D243C260C16002610161142242618161C16106480160FFF743FE01BD00000000D9
:20494000EC070020D004002000100240002002407047FEE7FEE7FEE7FEE77047704770472C
:204960007047704770477047704770477047704770477047704770477047704770477047C7
:204980007047704770477047704770477047704770477047704770477047704770477047A7
:2049A000704770477047704770477047704770477047704770477047704770477047704787
:2049C0007047704770477047704770477047704770477047704770477047000010B5084976
:2049E00079441C31074C7C441A34A14206D0081D0A68891888470100A142F8D110BD00BF53
:204A0000300000003C00000010B400210268001D002A0BD00368001DDC0702D54C46641E63
:204A20001B1919601B1D121FFBD1EFE710BC7047D9FFFFFF04000000D0040020000000006D
:204A400000F009F8002801D0FFF7C8FF0020FFF731FF00F002F80120704780B500F002F888
:204A600000BF00000746384600F002F8FBE7000080B5C046C046024A11001820ABBEFBE7BF
:204A800026000200C046C046C046C046FFF7D8FFCDCDCDCDCDCDCDCDCDCDCDCDCDCDCDCD39
:204AA000081200207905002095050020990500209D050020A1050020A50500200000000054
:204AC000000000000000000000000000A9050020AD05002000000000B1050020B505002086
:204AE000B9050020BD050020C1050020C5050020C9050020CD050020D1050020D505002056
:204B0000D9050020DD050020E1050020E5050020E9050020ED050020F1050020F505002035
:204B2000F9050020FD0500200106002005060020090600200D06002011060020150600200F
:204B4000190600201D0600202106002025060020290600202D0600203106002035060020ED
:204B6000390600203D0600204106002045060020490600204D0600205106002055060020CD
:204B8000590600205D0600206106002065060020690600206D0600207106002075060020AD
:204BA000790600207D0600208106002085060020890600208D06002091060020950600208D
:204BC000990600209D060020A1060020A5060020A9060020AD060020B1060020B50600206D
:204BE000B9060020BD060020C1060020C5060020C9060020CD060020D1060020D50600204D
:204C0000D9060020DD060020E1060020E5060020E9060020ED060020F1060020F50600202C
:204C2000F90600206A48006801680A69002A04D5684A4A60006868494160704770B5044620
:204C400000F063F8082821D1614806683068634D102C01692CBF294021F0F801016130688A
:204C60000169E20042F0020211430161306800F048F831680A6922F002020A613168102CD2
:204C80000A692CBF2A4022F0F8020A6170BDF8B5064614461D4600F038F808280DD14C4830
:204CA0000768386800F028F83460756000F02DF839680A69520852000A61F2BD70B504460E
:204CC0000D4600F022F8082813D100F056F84FF400731A4300F00EF8BFF34F8F2560BFF355
:204CE0004F8F00F012F8316809680A69520852000A6170BD0A610068016941F00101016149
:204D00007047016941F4803101614FF0FF3067E070B504460D46FFF7F8FF082817D12C483A
:204D200006683068016921F440710161306801694FF48072114301613068FFF7DDFF2580DF
:204D4000FFF7E3FF31680A69520852000A6170BD70B504460D46FFF7D8FF08280CD100F09F
:204D60000CF8FFF7C7FF2570FFF7CFFF316809680A69520852000A6170BD154E30680168F5
:204D80000A6922F440720A6101680A697047104909680968C86070470D4800680068C16872
:204DA000C90301D501207047C168C90601D505207047C16811F0EF0101D006207047C068DF
:204DC000800701D50720704708207047000000000410002023016745AB89EFCD07F0FFFFD0
:204DE00010B50446FFF7D8FF03E02CB1FFF7D4FF641E0128F9D004B9092010BD2DE9F843D6
:204E00002C4C04F21C0504F21C0604F21C0904F21C08294F7C60FFF705FFE0684FF400716C
:204E2000884209D2F320FFF7B2FFE068FFF706FF38703878082837D1F320FFF7A8FF6069C7
:204E4000A169884234D26068082808D118F8011B6069FFF77DFF38706069401C1DE010283E
:204E600008D139F8021B6069FFF752FF38706069801C12E0202808D156F8041B6069FFF7AF
:204E80001DFF38706069001D07E0F5E802236069FFF7FDFE3870606908306061387808287B
:204EA000CDD0F320FFF773FF00BF0020BDE8F283FEE700BFE40700200010002082B029485F
:204EC000016841F001010160002181600168264A1140016000214160016821F48021016006
:204EE0000021C16001910091016841F480310160016801F4003100910199491C0191009953
:204F000019B90199B1F5A06FF2D10168490C01F0010100910099012922D181688160816802
:204F200041F400418160816841F4A05181600F494160016841F08071016001688901FCD581
:204F40000B4903220A708168890889008160816841F002018160816801F00C010829FAD199
:204F600002B0704700380240FFFFF6FE193C4025003C024010B5084979441C31074C7C44F1
:204F80001A34A14206D0081D0A68511888470146A142F8D110BD00BF2C0000003800000058
:204FA00050F8041B61B150F8042BD30744BFA9F101039A18002342F8043B091FFAD1EFE76F
:204FC00070470000DDFFFFFF08000000001000200000000000F009F8002801D0FFF7CAFF5F
:204FE0000020FFF70BFF00F002F80120704780B500F002F800BF00000746384600F002F83C
:20500000FBE7000080B5C046C046024A11001820ABBEFBE7260002000148804701480047C5
:205020001D04002089050020C046C046C046C046FFF7D0FFFFF7FEBFFFF7FEBFFFF7FEBF8B
:20504000FFF7FEBFFFF7FEBFFFF7FEBFFFF7FEBFFFF7FEBFFFF7FEBFFFF7FEBFFFF7FEBFB8
:20506000FFF7FEBFFFF7FEBFFFF7FEBFFFF7FEBFFFF7FEBFFFF7FEBFFFF7FEBFFFF7FEBF98
:20508000FFF7FEBFFFF7FEBFFFF7FEBFFFF7FEBFFFF7FEBFFFF7FEBFFFF7FEBFFFF7FEBF78
:2050A000FFF7FEBFFFF7FEBFFFF7FEBFFFF7FEBFFFF7FEBFFFF7FEBFFFF7FEBFFFF7FEBF58
:2050C000FFF7FEBFFFF7FEBFFFF7FEBFFFF7FEBFFFF7FEBFFFF7FEBFFFF7FEBFFFF7FEBF38
:2050E000FFF7FEBFFFF7FEBFFFF7FEBFFFF7FEBFFFF7FEBFFFF7FEBFFFF7FEBFFFF7FEBF18
:20510000FFF7FEBFFFF7FEBFFFF7FEBFFFF7FEBFFFF7FEBFFFF7FEBFFFF7FEBFFFF7FEBFF7
:20512000FFF7FEBFFFF7FEBFFFF7FEBFFFF7FEBFFFF7FEBFFFF7FEBFFFF7FEBFFFF7FEBFD7
:20514000FFF7FEBFFFF7FEBFFFF7FEBFFFF7FEBFFFF7FEBFFFF7FEBFFFF7FEBFFFF7FEBFB7
:20516000FFF7FEBFFFF7FEBFFFF7FEBFFFF7FEBFFFF7FEBFFFF7FEBFFFF7FEBFFFF7FEBF97
:20518000FFF7FEBFFFF7FEBFFFF7FEBFFFF7FEBFFFF7FEBFFFF7FEBFFFF7FEBFCDCDCDCDF6
:2051A000DFF8CC0C0178562904BF4178442907D18178492904BFC078532801D101207047FC
:2051C00000207047F0B5DFF8AC1C30220A7037224A7039228A70CA70DFF8942C537B422B74
:2051E00076D1937B977B0B7049600024D37B4B70137C8B70537CCB700FF204231D4600E0F8
:20520000641C15F8066BBE4201D2292CF8DB04EB44056D00977BEE5CBE420AD1ED18D67B63
:205220006D78B54205D2292CB8BF641CEFDB00E0641C04EB44056D00977BEE5CBE4201BF84
:20524000ED186E78D77BBE4205D1AD78167CB54201D2292CECDB04EB44056D00967BEF5C9D
:20526000B74201BFEF1897F801C092F80FE0F4450ED197F802C092F810E0F44508D1FF7839
:2052800092F811C0674503D2292CB8BF641CE2DB292C80F2B280EC5CB44201BFEF187B7838
:2052A000D47BA34240F0A980BB78147CA34202BFFB78527C934240F0A080BA88904200F08E
:2052C0009C8030200870372048703920887093E01378562B1ED153784E2B04BF94784F2C8E
:2052E00007D1D478442C01BF1479452C54795F2C10D04E2B04BF9378552B51D1D378432B82
:2053000004BF13794C2B4BD15379452B04BF93794F2B45D14FF48264031B18D05B1F3BD05C
:205320009B1E1DD01A3B29D09B1E1BD01B1F13D05B1E21D05B1E0DD0DB1F17D09B1E23D06B
:205340001B1F1FD05B1E23D05B1E11D028E030238B7024E0302320E031238B7030231EE011
:2053600031231AE032238B70302318E0322314E033238B70302312E033230EE034238B70CF
:2053800030230CE0342308E035238B70302306E036238B70302302E036238B703523CB7093
:2053A0001378562B04BF5378442B26D19378492B04BFD278532A20D140F21542801A16D0EA
:2053C000801E04D0213808D011380AD0F0BD382048703020887035200EE03820487031205E
:2053E00008E03820487031208870352004E038204870322088703020C870F0BD00000000A4
:20540000303730301004303730353904303731303704303731351704303732303304303756
:205420003235400430373236400430373330480430373331480430373335380430373430AB
:205440003104303734313104303734345804303734354604303734362204303734374604BE
:2054600030373530420430373535480430373630470430373635150430373730350430378C
:20548000373538043037373721043037373821043037383057043037383545043037383851
:2054A0003404303739302504303739314404303739351904303739361904303830351704D5
:2054C000303831303804303831354904303831364904303831375104303832301504303820
:2054E0003235410430383236410430383330130430383335110400002DE9F04104468846C5
:2055000016461F4680257EB14146204601F09EFE802804D0802D02D107B13C600546641C61
:20552000761E08F10108EFD12846BDE8F0812DE9F041DFF88C49207886B008B90520EAE31D
:2055400005A904A801F0C0FB802807D104980005000D40F27741884240F0DC83DFF8345B6E
:20556000DFF8340B01AB012205F1640101F07DFD0646802E40F0CC8300206867A07040F2D6
:205580001248686E0005000D4045686600F01682B0F5826F08D14FF4A040A8664FF40030DB
:2055A000E8664FF4806034E240F21441884218BFB0F5856F05D14FF40040A8664FF40020D9
:2055C00024E2B0F5866F0BD14FF4C030A8664FF48010E8664FF40060286705F1180061E26A
:2055E00040F21147B8421CBF40F2134188422AD1DFF8540C606001AB012203A9DFF84C0C60
:2056000001F033FD0646802E40F082830398C0F303100328039004D0042840F07B8340F2BB
:2056200013476F6620206867DFF8240CA8674FF40030A8664FF48010E8664FF480402867E2
:2056400005F130002EE240F2194240F2344190421EBF884240F2514290421ED1DFF8E82BF7
:20566000626020226A678842DFF8E42BAA674FF4403208BF4FF4A02205D040F251418842B0
:2056800008BF4FF400224FF40010E866AA664FF48040286705F1300004E2B0F58B6F13D10C
:2056A000DFF8A40B606020206867DFF8A40BA8674FF40040A8664FF40030E8664FF48040AB
:2056C000286705F13000EDE140F22341884213D1DFF8740B606020206867DFF8740BA86779
:2056E0004FF48030A8664FF48020E8664FF48040286705F13000D5E140F2334188421CBFBF
:2057000040F2434188420AD040F2314188421FBF40F22141884240F25241884224D1DFF82A
:20572000281B61604FF40022EA66202169674FF480422A6740F23142DFF8141BA96790427C
:205740004FF4C03102D14FF4003109E040F221429042F8D040F25242904208BF4FF44031A3
:20576000A96605F130009DE140F24141884213D1DFF8D40A606020206867DFF8D40AA867CC
:205780004FF48020A8664FF48010E8664FF40040286705F1300085E140F23541884213D103
:2057A000DFF8B00A606040206867DFF8AC0AA8674FF44040A8664FF48020E8664FF4006028
:2057C000286705F130006DE140F24941884213D1DFF8740A606020206867DFF8740AA867D4
:2057E0004FF4A020A8664FF48010E8664FF40040286705F1300055E140F21541884213D1D3
:20580000DFF8500A606040206867DFF84C0AA8674FF4C030A8664FF48010E8664FF4006027
:20582000286705F130003DE140F2164188420ED1DFF8280A6060DFF8180AA8674FF480408F
:20584000A8664FF40030E8664FF4807027E140F2294188420ED1DFF8040A6060DFF8F00984
:20586000A8674FF40040A8664FF40030E8664FF4807014E140F2274188420ED1DFF8DC09A0
:205880006060DFF8CC09A8674FF40040A8664FF48020E8664FF4807001E140F23641884243
:2058A0000ED1DFF8B8096060DFF8A409A8674FF44040A8664FF4C020E8664FF48070EEE0DB
:2058C00040F2374188420ED1DFF890096060DFF88009A8674FF4A030A8664FF40020E86604
:2058E0004FF48070DBE0B0F5836F08BF4FF4A04000F08980B0F5846F08D14FF40050A8662E
:205900004FF40030E8664FF4806082E040F22441884208D14FF42050A8664FF40040E86675
:205920004FF4806075E040F23241884269D040F22241884208BF4FF4204064D0B0F5876FAF
:2059400005D14FF44050A8664FF480305EE040F23941884205D14FF48040A8664FF480300F
:2059600054E040F24641884205D14FF48030A8664FF400204AE0002840F0958001AB0122D0
:2059800005F16401DFF8280B01F06FFB0646802E40F0BE81686E0005000DB0F5886F68668C
:2059A00008D14FF40050A8664FF48030E8664FF480602EE040F24441884208D14FF480508E
:2059C000A8664FF40040E8664FF4806021E0B0F5896F05D14FF48040A8664FF4003015E0D8
:2059E00040F24541884208D14FF4C050A8664FF40040E8664FF480600BE040F2424188428D
:205A00000AD14FF40040A8664FF48020E8664FF400602867ED6746E040F25741884208D1D0
:205A2000DFF8700BA8674FF40060A8664FF4804033E040F22541884208D1DFF8580BA867BA
:205A40004FF40050A8664FF4004026E040F21741884208D1DFF83C0BA8674FF40050A86621
:205A60004FF4803019E040F25941884208D1DFF8240BA8674FF48040A8664FF400300CE046
:205A800040F24741884240F04581DFF8080BA8674FF4A040A8664FF44030E8668020286732
:205AA00005F14800E867E86F05F1480188420CBF4FF400700020802E286606D1606800235D
:205AC000012202A901F0D1FA0646802E40F022816F6EB8B2FFF776FBB7F5826F18BF4745C1
:205AE0000ED040F21440874218BFB7F5836F07D0B7F5846F1CBFB7F5856FB7F5866F11D190
:205B000001AB022200A9DFF8C80AFFF7F5FC0646DFF8C00A00F007F99DF80800800740F14A
:205B2000EB80E7E040F2224087421CBF40F2324087421CD0B7F5876F1CBF40F239408742B1
:205B400015D0B7F5886F1CBF40F2424087420ED040F2444087421CBF40F24540874206D0D7
:205B600040F24640874218BFB7F5896F11D101AB022200A9DFF8600AFFF7BEFC0646DFF8BA
:205B80005C0A00F0D0F89DF80800800740F1B480B0E040F2154087421CBF40F23540874233
:205BA0000ED101AB022200A9DFF8340AFFF7A4FC0646DFF8300A00F0B6F89DF8080097E0D3
:205BC00040F2114087421CBF40F2134087421ED040F2194087421CBF40F22140874216D0F1
:205BE00040F2234087421CBF40F2314087420ED040F2334087421CBF40F23440874206D094
:205C000040F24140874218BFB7F58B6F0AD101AB022200A9DFF8D009FFF76EFC0646DFF804
:205C2000CC0961E040F2174087421CBF40F22540874207D040F2474087421CBF40F25740C4
:205C400087420ED101AB022200A9DFF8A409FFF753FC0646DFF89C0900F065F89DF80800A8
:205C600046E040F2164087420ED101AB022200A9DFF88409FFF740FC0646DFF8780900F02B
:205C800052F89DF8080033E040F2274087421FBF40F23640874240F2374087420ED101AB5C
:205CA000022200A9DFF85409FFF726FC0646DFF8440900F038F89DF8080019E040F24940EA
:205CC000874208D101AB022200A9DFF83409FFF713FC064606E040F2514087420CD10020D5
:205CE000ADF80000DFF81C0900F01DF89DF80900AA2801D00120A070802E09D1BDF800004F
:205D0000102805DBEA6EB0EB922F3CBF8002E866304600E0042006B0BDE8F081DFF8E818CF
:205D200009680160704700B585B000AB032201A901F09BF9802805D101980299484003991B
:205D4000484000E00020DFF8C018086005B000BD10B4DFF8B838DC6FA0F10061002234B163
:205D6000B0F1006F03D303F13000844203D010BC4FF0FF307047586E40F2154398421CBF8A
:205D800040F23543984204D148053FD110BCC80A704740F2494398421FBF40F251439842E2
:205DA00040F25243984202D14FF480230FE040F21944A0421CBF40F23444A0424FF400334C
:205DC00005D1B1F5801F24BFA1F580111022994213D25808814208D28008B1FBF0F300FB9D
:205DE000131098B910BC98187047B1FBF0F300FB131058B910BC101D7047B1FBF3F003FB01
:205E0000101119B9801810BC001D704710BC6FF00100704738B59F4DE86F08B9062032BD6E
:205E200041698A030169120C4FF0005001F038FA80281BD1E86FDFF8D847406982030023BF
:205E4000120C21464FF0005001F00FF980280DD1EA6F002100E0491C5369994206D2136905
:205E600014F8015BCB5CAB42F5D00D2032BD0000323C0008781B002010B5040082B001D1CF
:205E8000062016BD0020207000A9DFF8880700F098FE802813D10099890148BF04210DD408
:205EA0000099890348BF012108D40099090348BF022103D40099490301D50321217016BDCF
:205EC000801B0020F8B504464BF6BE60ADF800000D468026204601F0B9F9802818BF06463F
:205EE000671C691C384601F0B1F9802802D0802E08BF0646802E01D03046F2BD9DF80010FD
:205F00008025204601F088FA802818BF05469DF80110384601F080FA802802D0802D08BFBC
:205F20000546802D01D02846F2BD8020F2BD30B5584CE06F002883B06BD000A8FFF79CFF85
:205F400080280AD19DF80000012862D1E06F006801900F21019800F03BFE802806D1E06FC5
:205F6000C06801901121019800F032FE802804D110214FF0807000F02BFE802807D1DFF830
:205F80009806DFF890160190019800F01DFEDFF8845600218DF8001005E00299490302D5A7
:205FA00003218DF800109DF80020DAB9802818BF142817D100208DF8000002A9284600F08F
:205FC00000FE8028EFD10299890148BF0421E8D40299890348BF0121E3D402990903DCD5EF
:205FE0000221DEE7802804BF9DF80020022A10D080280FD101A90F2000F02FFEE16F802817
:020000040800F2
:2060000002BF019A8B689A4203D0019A49688A4200D0062003B030BD2DE9FC410446002017
:206020008DF8000002F078F80546DFF8E88500208DF8000001A9404600F0C3FD0746802F69
:2060400014D10198800148BF04200DD40198800348BF012008D40198000348BF022003D479
:206060000198400302D503208DF800009DF8000004280CBF0126002602F04EF8802F08BF3E
:20608000002E06D10146284602F00EFAA042CED306279BE0CC180020002004E02DE9FC41C6
:2060A000002000F073FD0746802F40F08F80002002F012FADFF864150120087000210020DD
:2060C00000F090FC802809D0012002F005FA0021002000F087FC0746802F0AD1DFF84015FA
:2060E00001200870DFF82C15DFF8380500F06CFD0746802F15D1DFF83015012000F064FD12
:206100000746802F0DD1C820FFF786FF0746802F05D1C820FFF780FF0746802F10D0062F02
:2061200001D0802F0CD1DFF80415DFF8040500F04BFD0746802F03D1C820FFF76DFF074693
:20614000012000F023FD802802D0802F08BF074601F0E2FF044641F2883540F2D176DFF875
:20616000B484802F1ED100208DF8000001A9404600F027FD0746802F14D10198800148BF5E
:2061800004200DD40198800348BF012008D40198000348BF022003D40198400302D5032068
:2061A0008DF8000001F0B8FF0146204602F07CF9B04203D3DFF8682401215170802F04BF1E
:2061C0009DF80010042901D1A842CAD33846BDE8F68138B5DFF85014002000F0F5FC044687
:2061E000802C06D1DFF84C144FF0006000F0ECFC0446DFF82C546878012822D0802C03D152
:20620000002000F0C3FC0446802C06D1DFF80414DFF8240400F0D8FC044600F058FCDFF8CB
:20622000FC1300200870A878012807D102F04FFE4FF4967002F03AF902F057FE012000F091
:20624000A5FC204632BD0000143C024000ED00E0003C024020200240042002401C3C0240E9
:206260002DE9FB4F914619F0030F84B04FF0000809D1DFF89863316EB06EC1F50061884207
:2062800001D3F06F08B906200FE101A8FFF7F4FD0446DFF88073DFF88C5306E002994903CD
:2062A00002D503218DF804100446802C23D19DF8040001281FD000953946284600F084FCBD
:2062C0000446802C40F0F0808DF8048002A9384600F077FC8028E7D10299890148BF0421E2
:2062E000E0D40299890348BF0121DBD402990903D4D50221D6E7316EB06E0818A0F5006ADF
:20630000BAF5006F706F88BF4FF4006A28B1DFF82C23511A00F058FC0446802C08D1B06FF0
:2063200030B1326EDFF81813891A00F04DFC0446802C07D1316EDFF80C03411A306F00F0C1
:2063400043FC0446802C05D1F06F406800A9FFF7B9FD0446802C05D1F06F806800A9FFF724
:20636000B1FD044600253BE010F1020F03D09DF81810012901D04FF6FF70802C05D1326E72
:20638000B149891A00F020FC0446802C06D1316EAE48411A404600F017FC04460BEB0700C7
:2063A000802C009006D1316EA948411A009800F00BFC0446802C0AD10598336E29184FEAC7
:2063C0008B32A448120CC01A00F06AFF0446802C03D10520FFF7ABFD04465D44A9EB0B09A3
:2063E000B9F1000F60D0802C5ED1706E40F6A811884218BFB0F51B6F20D097494AF6AA2062
:2064000000F0E2FB0446706E40F2154188421CBF40F2354188420AD040F2494188421FBFAA
:2064200040F25141884240F25241884206D1802C04D18A497F2000F0C7FB0446D346CA4551
:20644000049888BFCB462F18802C009706D1316E8348411A384600F0B7FB04460098FFF72A
:2064600077FC10F1010F7FF47FAF9DF818100098012980467FF481AF316F0246B2FBF1F297
:20648000844601FB12CCBCF1000F0BEB000301D1984672E7A3F1010CBCFBF1FC62453FF47B
:2064A0006CAF501C4843F3E7204607B0BDE8F08F0058014030B583B0044600200090019073
:2064C0000422214600A802F069FE00984F4DB0F1005F22BFA96E01F10051814245D2686E0F
:2064E000B0F5876F06D10098A0F18050B0F5805F3BD94BE040F22241884206D10098A0F10F
:206500008050B0F5005F30D940E040F24641884206D10098A0F18050B0F5804F25D935E0A4
:2065200040F21541884206D10098A0F18050B0F5004F1AD92AE040F2344188421FBF40F2C7
:206540001341884240F21941884206D10098A0F18050B0F1011F08D318E040F249418842DD
:2065600014D10098B0F5804F10D80422211D01A802F014FE0198B0F1006F21BFE96E6FF0F2
:2065800078425118814228BF012000D2002003B030BD0000002002400020704780B5FFF717
:2065A0007DFD802810D1FEF7C2FF80280CD1FFF731FC802801D0022002BD1E494FF000502A
:2065C00000F002FB802801D0042002BD002002BDE0F7FF1FE8F7FF1FCCF7FF1FACF7FF1FFF
:2065E000E075FF1F9075FF1F227AFF1F107AFF1F7C00F81F5000F81F4C00F81FCC00F81F63
:2066000042F4F01F20F4F01F34400020CC180020CC1B0020F0ED00E001005FA0201700205F
:20662000801B002003005FA0FCED00E00CED00E00400FA0508ED00E000005FA0E807002015
:20664000E4070020EC070020F0070020F4070020FC0700200008002000300040002C0040C3
:20666000F807002080B5012300F10060FFF7F8FD802801D0092002BD002002BD80B5FFF7FB
:206680000DFD80280AD1FEF752FF802802D0FFF7A0FD03E0FFF79DFD802801D0002002BD4F
:2066A000012002BD78B18378C2780FF208115B5C525C1B0443EA0262437800785B5C405CE7
:2066C00042EA032210437047F0B5DFF8807A0C4639788026012983B0154606D1214602F058
:2066E00052FA00F043F9064618E0002818BF012802D102F000FF06460FF2B80000EB84106E
:20670000802E90F82000387108D100A9381D02F063FF064600A8FFF7C5FF2860304603B0F0
:20672000F0BD10B5FFF7D0FF0446802C18BF00F0F2F8204610BD30B50D46DFF8101A09788E
:2067400003468020012983B0144607D12946184602F038FA00F00AF903B030BD13B1012B4D
:2067600002D004E0002000E0012002F0C4FE0FF24401AA01525C8DF80020E2B2525C8DF883
:2067800001202204120E525C8DF802202202120E525C8DF80320220E515C8DF8041000210C
:2067A0008DF80510802804BF00A802F008FF03B030BD0000008040C020A060E0109050D053
:2067C00030B070F0088848C828A868E8189858D838B878F8048444C424A464E4149454D409
:2067E00034B474F40C8C4CCC2CAC6CEC1C9C5CDC3CBC7CFC028242C222A262E2129252D2B1
:2068000032B272F20A8A4ACA2AAA6AEA1A9A5ADA3ABA7AFA068646C626A666E6169656D688
:2068200036B676F60E8E4ECE2EAE6EEE1E9E5EDE3EBE7EFE018141C121A161E1119151D154
:2068400031B171F1098949C929A969E9199959D939B979F9058545C525A565E5159555D568
:2068600035B575F50D8D4DCD2DAD6DED1D9D5DDD3DBD7DFD038343C323A363E3139353D310
:2068800033B373F30B8B4BCB2BAB6BEB1B9B5BDB3BBB7BFB078747C727A767E7179757D7E8
:2068A00037B777F70F8F4FCF2FAF6FEF1F9F5FDF3FBF7FFF10B5FFF73EFF0446802C18BF47
:2068C00000F029F8204610BD80B50020009000AA0121FFF726FF802802BFDFF8701809785F
:2068E000002904D100AA03210020FFF71AFF802810D1DFF858180978012903D100990906A6
:2069000048BF182000998906009948BF1920890748BF1A2002BD80B50020009000AA0121F6
:20692000FFF7D2FE802802BFDFF820180978002904D100AA03210020FFF7C6FE802814D165
:20694000DFF808180978009B01290CBFB222322213420AD0012903D11E220021002002E077
:206960001A4601210020FFF7E6FE02BD012108B9802070474FF6F8720240082A04D0302A51
:2069800004D0382A04D005E0092129E0062127E00A2125E0102A18BF182A00F007000DD14F
:2069A000012804D0022804D0042804D005E0142104E0152102E0172100E01621202A18BF56
:2069C000282A0DD1012804D0022804D0042804D005E0102104E0112102E0132100E0122137
:2069E0000846704770B5DFF8645782B00446FF2200202A616A61AA61EA61009000224FF67B
:206A0000F0702A656A6505EB8406E862F26C042ABCBF40EA0260E8622878012805D1002058
:206A200002F066F9FFF7A2FF02E0084602F03AFF802816D14FF0A04201210020FFF73AFFF2
:206A400080280ED100AA01210020FFF76AFE802807D1009901F0704111F1805F18BF0B20C7
:206A60001FD1802808BFFFF756FF802804BFF02000F041F8802804D100AA03210120FFF766
:206A800050FE802805D105F1500202210120FFF748FE802805D105F1540203210020FFF75E
:206AA00040FE95F85020F16C012A05EB81010CBF4FF030624FF00C5280280A6306D12A78DA
:206AC0006119012A0CBF022201228A7076BD10B5DFF8784B2078012802D102F020F901E0F3
:206AE00002F0FCFE4FF6F070E062FF2020616061A061E06110BD38B5DFF85046E26A014666
:206B000002F07F4389B2802041EA0305AA4205D02A4602210020FFF7CDFEE56232BD70B523
:206B2000DFF8282BD36A014680201B0E042B28BF002302EB83040D462269AA4225D0022947
:206B400011D1206B40F012060020FFF7D4FF80281BD1324600210120FFF7ACFE802813D01E
:206B6000FF21216170BD012903D1206B40F00106EAE709B9266BE7E7032903D1206B40F0D9
:206B80000206E1E7062070BD256170BD10B5040018BF022C05D100220121DFF8B40A02F0B0
:206BA00067FF022C03D10A2001F080FC01E0012C05D101220121DFF8980A02F059FF80204A
:206BC00010BD0023012250E201B50846012277E138B504460D4603F063F80220FFF79FFF63
:206BE000802804BF0020FFF786FF802805D1DFF8642A01210120FFF75DFE802804BF10207D
:206C0000FFF779FF802804D1224602210120FFF751FE802807D105F07F0040F4803201219C
:206C20000120FFF747FE802804D1DFF82C1A284600F013F880280FD1DFF8100A006C0F2DD4
:206C400005D1400840006108B0EB410F00E0A04201D1802032BD0D2032BD38B504460D46B9
:206C600003F01EF80220FFF75AFF802804BF0020FFF741FF802805D1DFF8D8290121012040
:206C8000FFF718FE802804BF1020FFF734FF802805D104F07F0201210120FFF70BFE802847
:206CA00004D12A4602210120FFF73BFD802804D12A4603210020FFF734FD802803D1BDE8A4
:206CC0003240002017E732BD2DE9F041DFF87C7406463878802501280C4605D1DFF87C09D9
:206CE0000068306000201AE0DFF874890221404602F063FB054608F10100FFF7D3FC38640F
:206D0000802D386C30600BD10321404602F055FB054608F10100FFF7C5FC3864386C20600E
:206D20002846BDE8F081F8B5044602F0B9FF0220FFF7F5FE012C03D121244025002602E070
:206D4000152400250026DFF81C79802806D1202E39460CBF2120E8B2FFF77FFF761C3F1DEF
:206D60006D1CA642F1DBF2BD38B504460020207002F096FF0220FFF7D2FE802810D1DFF871
:206D8000CC58DFF8D0080023012205F1400100F06CF9802804D1296C890344BF01212170FA
:206DA00032BD70B582B006460FF260000091144650F826001D46012200A900F071FA802855
:206DC00009D10698009001220FF2500000A950F8260000F065FA802816D10FF250010FF2EF
:206DE000600051F82520079950F82600802906D10FF25C0151F824101143009100E00092E5
:206E0000012200A900F04CFA76BD0000201000E0301000E0401000E0501000E0241000E089
:206E2000341000E0441000E0541000E00400000005000000060000000700000000000000A0
:206E4000281000E0381000E0481000E0581000E0000000000004000000080000000C00005A
:206E600038B50C46DFF80018084012B940F0804505E0012A0CBF40F0004540F0404545F0A2
:206E8000010502F00DFF0220FFF749FE802809D10A48784426300095012250F8240000A9DC
:206EA00000F0FEF9802807D103200090012200A9DFF8B80700F0F4F932BD00BF3C1200007D
:206EC00000A900F0EDF902BDF8B504460025257002F0E6FE0220FFF722FE802808BF00F056
:206EE0008FF8802807D101200090012200A9DFF8800700F0D5F9802808D1DFF8780700908B
:206F0000012200A9DFF8700700F0CAF98028DFF83C6707D10023012206F14001DFF834071A
:206F200000F0A3F8316C490E6D1C01F00101802808BF002902D1B5F57A7FE7DB802808BF17
:206F4000002925D00025DFF80C770023012206F14001384600F089F8316C6D1C890104D59E
:206F6000802802D1B5F57A7FEFDB316C89030DD5802807D1DFF804070090012200A93846E2
:206F800000F08EF9802803D1012100E000212170F2BD70B5044682B00020207002F080FEDA
:206FA0000220FFF7BCFD802808D1DFF8D4060090012200A9DFF89C0600F072F980281ED107
:206FC000DFF88856DFF88C660023012205F14001304600F04AF8296CDFF8A826114207D1A9
:206FE00076BD0023012205F14001304600F03DF8802802D1296CC901F3D40121217076BDBF
:2070000070B582B0002402F04BFE0220FFF787FD8028DFF838661DD1DFF86006DFF8345675
:207020000090012200A9284600F03AF9802806D10023012206F14001284600F016F8316C5D
:20704000641C890302D5316C090303D5C82C01DA8028E1D0802807D100230122DFF8F815FA
:20706000DFF8F00500F001F876BD2DE9F84F0546894690461E46002706B1376002F010FE02
:207080000220FFF74CFD0446A8F1010A1FE0802C09D14A4603210020FFF716FB0446802C4B
:2070A00018BFFFF738FC802C06D1FFF70DFC0446802C08D0FFF72FFC002E18BF802C02D0DB
:2070C000306800B935607F1C09F104092D1D47453BD2802C39D10FB1A80527D1DFF86C45A2
:2070E000E16A802001F07F4B594506D05A4602210020FFF7DFFBC4F82CB00446802C09D15B
:207100002A4601210120FFF716FB0446802C18BFFFF701FC802C09D100AA03210120FFF78A
:20712000D3FA0446802C18BFFFF7F5FB5745AED2802CC1D14A4603210120FFF7C5FA0446A1
:20714000802CB9D0FFF7E7FBB6E77CE0201700202DE9F84F40080E4692461D464FF0000857
:2071600047000DB1C5F8008002F09AFD0120FFF7D6FC0446AAF1010914E03080802C06D145
:20718000FFF7A2FB0446802C08D0FFF7C4FB002D18BF802C02D0286800B92F6008F101087D
:2071A000B61CBF1CD0454ED2802C4CD1DFF89C44E16A802001F07F4B594506D05A46022190
:2071C0000020FFF777FBC4F82CB00446802C09D13A4601210120FFF7AEFA0446802C18BF91
:2071E000FFF799FB802C09D100AA03210120FFF76BFA0446802C18BFFFF78DFBC84511D2FA
:20720000802CC4D100AA03210120FFF75DFA0446802C18BFFFF77FFBB807009848BF000C4A
:207220003080B4E7802CA9D100AA03210020FFF74BFA0446802C18BFFFF76DFBB807009832
